{
  "_format": "hh-sol-artifact-1",
  "contractName": "ZombieFactory",
  "sourceName": "contracts/ZombieFactory.sol",
  "abi": [
    {
      "anonymous": false,
      "inputs": [
        {
          "indexed": false,
          "internalType": "uint256",
          "name": "zombieId",
          "type": "uint256"
        },
        {
          "indexed": false,
          "internalType": "string",
          "name": "name",
          "type": "string"
        },
        {
          "indexed": false,
          "internalType": "uint256",
          "name": "dna",
          "type": "uint256"
        }
      ],
      "name": "zombieCreation",
      "type": "event"
    },
    {
      "inputs": [
        {
          "internalType": "string",
          "name": "_name",
          "type": "string"
        }
      ],
      "name": "createRandomZombie",
      "outputs": [],
      "stateMutability": "nonpayable",
      "type": "function"
    },
    {
      "inputs": [
        {
          "internalType": "uint256",
          "name": "",
          "type": "uint256"
        }
      ],
      "name": "zombies",
      "outputs": [
        {
          "internalType": "string",
          "name": "name",
          "type": "string"
        },
        {
          "internalType": "uint256",
          "name": "dna",
          "type": "uint256"
        }
      ],
      "stateMutability": "view",
      "type": "function"
    }
  ],
  "bytecode": "0x60806040526010600055600054600a6200001a9190620001be565b6001553480156200002a57600080fd5b506200020f565b7f4e487b7100000000000000000000000000000000000000000000000000000000600052601160045260246000fd5b60008160011c9050919050565b6000808291508390505b6001851115620000bf5780860481111562000097576200009662000031565b5b6001851615620000a75780820291505b8081029050620000b78562000060565b945062000077565b94509492505050565b600082620000da5760019050620001ad565b81620000ea5760009050620001ad565b81600181146200010357600281146200010e5762000144565b6001915050620001ad565b60ff84111562000123576200012262000031565b5b8360020a9150848211156200013d576200013c62000031565b5b50620001ad565b5060208310610133831016604e8410600b84101617156200017e5782820a90508381111562000178576200017762000031565b5b620001ad565b6200018d84848460016200006d565b92509050818404811115620001a757620001a662000031565b5b81810290505b9392505050565b6000819050919050565b6000620001cb82620001b4565b9150620001d883620001b4565b9250620002077fffffffffffffffffffffffffffffffffffffffffffffffffffffffffffffffff8484620000c8565b905092915050565b610988806200021f6000396000f3fe608060405234801561001057600080fd5b50600436106100365760003560e01c80632052465e1461003b5780637bff0a011461006c575b600080fd5b610055600480360381019061005091906102a6565b610088565b604051610063929190610372565b60405180910390f35b610086600480360381019061008191906104d7565b610144565b005b6002818154811061009857600080fd5b90600052602060002090600202016000915090508060000180546100bb9061054f565b80601f01602080910402602001604051908101604052809291908181526020018280546100e79061054f565b80156101345780601f1061010957610100808354040283529160200191610134565b820191906000526020600020905b81548152906001019060200180831161011757829003601f168201915b5050505050908060010154905082565b600061014f8261015f565b905061015b82826101a4565b5050565b6000808260405160200161017391906105bc565b6040516020818303038152906040528051906020012060001c90506001548161019c9190610602565b915050919050565b6002604051806040016040528084815260200183815250908060018154018082558091505060019003906000526020600020906002020160009091909190915060008201518160000190816101f991906107df565b506020820151816001015550506000600160028054905061021a91906108e0565b90507f173e2da24c1a0c6bdbc94656c4aabc13be4cab96ad3d02136fb7bf84a4d3ecab81848460405161024f93929190610914565b60405180910390a1505050565b6000604051905090565b600080fd5b600080fd5b6000819050919050565b61028381610270565b811461028e57600080fd5b50565b6000813590506102a08161027a565b92915050565b6000602082840312156102bc576102bb610266565b5b60006102ca84828501610291565b91505092915050565b600081519050919050565b600082825260208201905092915050565b60005b8381101561030d5780820151818401526020810190506102f2565b60008484015250505050565b6000601f19601f8301169050919050565b6000610335826102d3565b61033f81856102de565b935061034f8185602086016102ef565b61035881610319565b840191505092915050565b61036c81610270565b82525050565b6000604082019050818103600083015261038c818561032a565b905061039b6020830184610363565b9392505050565b600080fd5b600080fd5b7f4e487b7100000000000000000000000000000000000000000000000000000000600052604160045260246000fd5b6103e482610319565b810181811067ffffffffffffffff82111715610403576104026103ac565b5b80604052505050565b600061041661025c565b905061042282826103db565b919050565b600067ffffffffffffffff821115610442576104416103ac565b5b61044b82610319565b9050602081019050919050565b82818337600083830152505050565b600061047a61047584610427565b61040c565b905082815260208101848484011115610496576104956103a7565b5b6104a1848285610458565b509392505050565b600082601f8301126104be576104bd6103a2565b5b81356104ce848260208601610467565b91505092915050565b6000602082840312156104ed576104ec610266565b5b600082013567ffffffffffffffff81111561050b5761050a61026b565b5b610517848285016104a9565b91505092915050565b7f4e487b7100000000000000000000000000000000000000000000000000000000600052602260045260246000fd5b6000600282049050600182168061056757607f821691505b60208210810361057a57610579610520565b5b50919050565b600081905092915050565b6000610596826102d3565b6105a08185610580565b93506105b08185602086016102ef565b80840191505092915050565b60006105c8828461058b565b915081905092915050565b7f4e487b7100000000000000000000000000000000000000000000000000000000600052601260045260246000fd5b600061060d82610270565b915061061883610270565b925082610628576106276105d3565b5b828206905092915050565b60008190508160005260206000209050919050565b60006020601f8301049050919050565b600082821b905092915050565b6000600883026106957fffffffffffffffffffffffffffffffffffffffffffffffffffffffffffffffff82610658565b61069f8683610658565b95508019841693508086168417925050509392505050565b6000819050919050565b60006106dc6106d76106d284610270565b6106b7565b610270565b9050919050565b6000819050919050565b6106f6836106c1565b61070a610702826106e3565b848454610665565b825550505050565b600090565b61071f610712565b61072a8184846106ed565b505050565b5b8181101561074e57610743600082610717565b600181019050610730565b5050565b601f8211156107935761076481610633565b61076d84610648565b8101602085101561077c578190505b61079061078885610648565b83018261072f565b50505b505050565b600082821c905092915050565b60006107b660001984600802610798565b1980831691505092915050565b60006107cf83836107a5565b9150826002028217905092915050565b6107e8826102d3565b67ffffffffffffffff811115610801576108006103ac565b5b61080b825461054f565b610816828285610752565b600060209050601f8311600181146108495760008415610837578287015190505b61084185826107c3565b8655506108a9565b601f19841661085786610633565b60005b8281101561087f5784890151825560018201915060208501945060208101905061085a565b8683101561089c5784890151610898601f8916826107a5565b8355505b6001600288020188555050505b505050505050565b7f4e487b7100000000000000000000000000000000000000000000000000000000600052601160045260246000fd5b60006108eb82610270565b91506108f683610270565b925082820390508181111561090e5761090d6108b1565b5b92915050565b60006060820190506109296000830186610363565b818103602083015261093b818561032a565b905061094a6040830184610363565b94935050505056fea2646970667358221220df84f8638e4274cdbebd27bc79360ee1efb50731d9a73a85eea038676e9f8ad164736f6c63430008130033",
  "linkReferences": {},
  "deployedLinkReferences": {}
}