{
  "contractName": "Dirt",
  "abi": [
    {
      "inputs": [],
      "stateMutability": "nonpayable",
      "type": "constructor"
    },
    {
      "anonymous": false,
      "inputs": [
        {
          "indexed": true,
          "internalType": "address",
          "name": "_from",
          "type": "address"
        },
        {
          "indexed": true,
          "internalType": "address",
          "name": "_to",
          "type": "address"
        },
        {
          "indexed": false,
          "internalType": "uint256",
          "name": "amount",
          "type": "uint256"
        }
      ],
      "name": "Transfer",
      "type": "event"
    },
    {
      "inputs": [
        {
          "internalType": "address",
          "name": "",
          "type": "address"
        }
      ],
      "name": "balances",
      "outputs": [
        {
          "internalType": "uint256",
          "name": "",
          "type": "uint256"
        }
      ],
      "stateMutability": "view",
      "type": "function",
      "constant": true
    },
    {
      "inputs": [],
      "name": "owner",
      "outputs": [
        {
          "internalType": "address",
          "name": "",
          "type": "address"
        }
      ],
      "stateMutability": "view",
      "type": "function",
      "constant": true
    },
    {
      "inputs": [],
      "name": "total_tokens",
      "outputs": [
        {
          "internalType": "uint256",
          "name": "",
          "type": "uint256"
        }
      ],
      "stateMutability": "view",
      "type": "function",
      "constant": true
    },
    {
      "inputs": [
        {
          "internalType": "address",
          "name": "_from",
          "type": "address"
        },
        {
          "internalType": "address",
          "name": "_to",
          "type": "address"
        },
        {
          "internalType": "uint256",
          "name": "amount",
          "type": "uint256"
        }
      ],
      "name": "transfer",
      "outputs": [],
      "stateMutability": "nonpayable",
      "type": "function"
    },
    {
      "inputs": [
        {
          "internalType": "address",
          "name": "_accNumber",
          "type": "address"
        }
      ],
      "name": "getUserBalance",
      "outputs": [
        {
          "internalType": "uint256",
          "name": "",
          "type": "uint256"
        }
      ],
      "stateMutability": "view",
      "type": "function",
      "constant": true
    },
    {
      "inputs": [
        {
          "internalType": "address",
          "name": "_accNumber",
          "type": "address"
        }
      ],
      "name": "addAccToMapping",
      "outputs": [
        {
          "internalType": "address",
          "name": "",
          "type": "address"
        }
      ],
      "stateMutability": "nonpayable",
      "type": "function"
    },
    {
      "inputs": [],
      "name": "getOwner",
      "outputs": [
        {
          "internalType": "address",
          "name": "",
          "type": "address"
        }
      ],
      "stateMutability": "view",
      "type": "function",
      "constant": true
    }
  ],
  "bytecode": "0x60806040526040518060400160405280600a81526020017f4469727420546f6b656e000000000000000000000000000000000000000000008152505f908162000049919062000393565b506040518060400160405280600381526020017f64727400000000000000000000000000000000000000000000000000000000008152506001908162000090919062000393565b5062989680600255348015620000a4575f80fd5b503360035f6101000a81548173ffffffffffffffffffffffffffffffffffffffff021916908373ffffffffffffffffffffffffffffffffffffffff16021790555060025460045f3373ffffffffffffffffffffffffffffffffffffffff1673ffffffffffffffffffffffffffffffffffffffff1681526020019081526020015f208190555062000477565b5f81519050919050565b7f4e487b71000000000000000000000000000000000000000000000000000000005f52604160045260245ffd5b7f4e487b71000000000000000000000000000000000000000000000000000000005f52602260045260245ffd5b5f6002820490506001821680620001ab57607f821691505b602082108103620001c157620001c062000166565b5b50919050565b5f819050815f5260205f209050919050565b5f6020601f8301049050919050565b5f82821b905092915050565b5f60088302620002257fffffffffffffffffffffffffffffffffffffffffffffffffffffffffffffffff82620001e8565b620002318683620001e8565b95508019841693508086168417925050509392505050565b5f819050919050565b5f819050919050565b5f6200027b620002756200026f8462000249565b62000252565b62000249565b9050919050565b5f819050919050565b62000296836200025b565b620002ae620002a58262000282565b848454620001f4565b825550505050565b5f90565b620002c4620002b6565b620002d18184846200028b565b505050565b5b81811015620002f857620002ec5f82620002ba565b600181019050620002d7565b5050565b601f82111562000347576200031181620001c7565b6200031c84620001d9565b810160208510156200032c578190505b620003446200033b85620001d9565b830182620002d6565b50505b505050565b5f82821c905092915050565b5f620003695f19846008026200034c565b1980831691505092915050565b5f62000383838362000358565b9150826002028217905092915050565b6200039e826200012f565b67ffffffffffffffff811115620003ba57620003b962000139565b5b620003c6825462000193565b620003d3828285620002fc565b5f60209050601f83116001811462000409575f8415620003f4578287015190505b62000400858262000376565b8655506200046f565b601f1984166200041986620001c7565b5f5b8281101562000442578489015182556001820191506020850194506020810190506200041b565b868310156200046257848901516200045e601f89168262000358565b8355505b6001600288020188555050505b505050505050565b6106ab80620004855f395ff3fe608060405234801561000f575f80fd5b506004361061007b575f3560e01c80638da5cb5b116100595780638da5cb5b146100fd5780638e29616b1461011b578063beabacc81461014b578063c6490835146101675761007b565b806327e235e31461007f57806347734892146100af578063893d20e8146100df575b5f80fd5b6100996004803603810190610094919061046c565b610185565b6040516100a691906104af565b60405180910390f35b6100c960048036038101906100c4919061046c565b61019a565b6040516100d691906104af565b60405180910390f35b6100e76101e0565b6040516100f491906104d7565b60405180910390f35b610105610208565b60405161011291906104d7565b60405180910390f35b6101356004803603810190610130919061046c565b61022d565b60405161014291906104d7565b60405180910390f35b6101656004803603810190610160919061051a565b610278565b005b61016f610408565b60405161017c91906104af565b60405180910390f35b6004602052805f5260405f205f915090505481565b5f60045f8373ffffffffffffffffffffffffffffffffffffffff1673ffffffffffffffffffffffffffffffffffffffff1681526020019081526020015f20549050919050565b5f60035f9054906101000a900473ffffffffffffffffffffffffffffffffffffffff16905090565b60035f9054906101000a900473ffffffffffffffffffffffffffffffffffffffff1681565b5f8060045f8473ffffffffffffffffffffffffffffffffffffffff1673ffffffffffffffffffffffffffffffffffffffff1681526020019081526020015f2081905550819050919050565b60045f3373ffffffffffffffffffffffffffffffffffffffff1673ffffffffffffffffffffffffffffffffffffffff1681526020019081526020015f20548110156102f8576040517f08c379a00000000000000000000000000000000000000000000000000000000081526004016102ef906105c4565b60405180910390fd5b8060045f8573ffffffffffffffffffffffffffffffffffffffff1673ffffffffffffffffffffffffffffffffffffffff1681526020019081526020015f205f828254610344919061060f565b925050819055508060045f8473ffffffffffffffffffffffffffffffffffffffff1673ffffffffffffffffffffffffffffffffffffffff1681526020019081526020015f205f8282546103979190610642565b925050819055508173ffffffffffffffffffffffffffffffffffffffff168373ffffffffffffffffffffffffffffffffffffffff167fddf252ad1be2c89b69c2b068fc378daa952ba7f163c4a11628f55a4df523b3ef836040516103fb91906104af565b60405180910390a3505050565b60025481565b5f80fd5b5f73ffffffffffffffffffffffffffffffffffffffff82169050919050565b5f61043b82610412565b9050919050565b61044b81610431565b8114610455575f80fd5b50565b5f8135905061046681610442565b92915050565b5f602082840312156104815761048061040e565b5b5f61048e84828501610458565b91505092915050565b5f819050919050565b6104a981610497565b82525050565b5f6020820190506104c25f8301846104a0565b92915050565b6104d181610431565b82525050565b5f6020820190506104ea5f8301846104c8565b92915050565b6104f981610497565b8114610503575f80fd5b50565b5f81359050610514816104f0565b92915050565b5f805f606084860312156105315761053061040e565b5b5f61053e86828701610458565b935050602061054f86828701610458565b925050604061056086828701610506565b9150509250925092565b5f82825260208201905092915050565b7f596f7520646f6e74206861766520656e6f75676820746f6b656e7300000000005f82015250565b5f6105ae601b8361056a565b91506105b98261057a565b602082019050919050565b5f6020820190508181035f8301526105db816105a2565b9050919050565b7f4e487b71000000000000000000000000000000000000000000000000000000005f52601160045260245ffd5b5f61061982610497565b915061062483610497565b925082820390508181111561063c5761063b6105e2565b5b92915050565b5f61064c82610497565b915061065783610497565b925082820190508082111561066f5761066e6105e2565b5b9291505056fea264697066735822122059377a36824dbcd408b7c56539543d79ac7694ecaa72ab2d8580648f894f84ea64736f6c63430008150033",
  "immutableReferences": {},
  "source": "// SPDX-License-Identifier: MIT\r\npragma solidity >= 0.8.0;\r\n\r\n\r\ncontract Dirt {\r\n    string token_name = 'Dirt Token';\r\n    string symbol = 'drt';\r\n\r\n    uint256 public total_tokens = 10000000; //A million tokens\r\n    address public owner;\r\n\r\n    mapping(address => uint) public balances;\r\n\r\n    event Transfer(address indexed _from, address indexed _to, uint amount );\r\n\r\n    constructor(){\r\n        owner = msg.sender;\r\n        balances[msg.sender] = total_tokens;\r\n    }\r\n\r\n    function transfer(address _from, address _to, uint amount) external{\r\n            require(amount >= balances[msg.sender],'You dont have enough tokens');\r\n            balances[_from] -= amount;\r\n            balances[_to] += amount;\r\n            emit Transfer(_from, _to, amount);        \r\n    }\r\n\r\n    function getUserBalance(address _accNumber) public view returns(uint){\r\n        return balances[_accNumber];\r\n    }\r\n\r\n    function addAccToMapping(address _accNumber) public returns(address){\r\n        balances[_accNumber] = 0;\r\n        return _accNumber;\r\n    }\r\n\r\n    function getOwner() public view returns(address){\r\n        return owner;\r\n    }\r\n}",
  "sourcePath": "C:\\Users\\moham\\Downloads\\blockchain\\truffle-dirt\\contracts\\dirt.sol",
  "compiler": {
    "name": "solc",
    "version": "0.8.21+commit.d9974bed.Emscripten.clang"
  },
  "schemaVersion": "3.4.16",
  "updatedAt": "2023-12-05T01:36:04.890Z",
  "networkType": "ethereum",
  "devdoc": {
    "kind": "dev",
    "methods": {},
    "version": 1
  },
  "userdoc": {
    "kind": "user",
    "methods": {},
    "version": 1
  }
}