{
  "_format": "hh-sol-artifact-1",
  "contractName": "Dirt",
  "sourceName": "contracts/dirt.sol",
  "abi": [
    {
      "inputs": [],
      "stateMutability": "nonpayable",
      "type": "constructor"
    },
    {
      "anonymous": false,
      "inputs": [
        {
          "indexed": true,
          "internalType": "address",
          "name": "_from",
          "type": "address"
        },
        {
          "indexed": true,
          "internalType": "address",
          "name": "_to",
          "type": "address"
        },
        {
          "indexed": false,
          "internalType": "uint256",
          "name": "amount",
          "type": "uint256"
        }
      ],
      "name": "Transfer",
      "type": "event"
    },
    {
      "inputs": [
        {
          "internalType": "address",
          "name": "_accNumber",
          "type": "address"
        }
      ],
      "name": "addAccToMapping",
      "outputs": [
        {
          "internalType": "address",
          "name": "",
          "type": "address"
        }
      ],
      "stateMutability": "nonpayable",
      "type": "function"
    },
    {
      "inputs": [
        {
          "internalType": "address",
          "name": "",
          "type": "address"
        }
      ],
      "name": "balances",
      "outputs": [
        {
          "internalType": "uint256",
          "name": "",
          "type": "uint256"
        }
      ],
      "stateMutability": "view",
      "type": "function"
    },
    {
      "inputs": [],
      "name": "getOwner",
      "outputs": [
        {
          "internalType": "address",
          "name": "",
          "type": "address"
        }
      ],
      "stateMutability": "view",
      "type": "function"
    },
    {
      "inputs": [
        {
          "internalType": "address",
          "name": "_accNumber",
          "type": "address"
        }
      ],
      "name": "getUserBalance",
      "outputs": [
        {
          "internalType": "uint256",
          "name": "",
          "type": "uint256"
        }
      ],
      "stateMutability": "view",
      "type": "function"
    },
    {
      "inputs": [],
      "name": "owner",
      "outputs": [
        {
          "internalType": "address",
          "name": "",
          "type": "address"
        }
      ],
      "stateMutability": "view",
      "type": "function"
    },
    {
      "inputs": [],
      "name": "total_tokens",
      "outputs": [
        {
          "internalType": "uint256",
          "name": "",
          "type": "uint256"
        }
      ],
      "stateMutability": "view",
      "type": "function"
    },
    {
      "inputs": [
        {
          "internalType": "address",
          "name": "_from",
          "type": "address"
        },
        {
          "internalType": "address",
          "name": "_to",
          "type": "address"
        },
        {
          "internalType": "uint256",
          "name": "amount",
          "type": "uint256"
        }
      ],
      "name": "transfer",
      "outputs": [],
      "stateMutability": "nonpayable",
      "type": "function"
    }
  ],
  "bytecode": "0x60806040526040518060400160405280600a81526020017f4469727420546f6b656e00000000000000000000000000000000000000000000815250600090816200004a9190620003ae565b506040518060400160405280600381526020017f647274000000000000000000000000000000000000000000000000000000000081525060019081620000919190620003ae565b5062989680600255348015620000a657600080fd5b5033600360006101000a81548173ffffffffffffffffffffffffffffffffffffffff021916908373ffffffffffffffffffffffffffffffffffffffff160217905550600254600460003373ffffffffffffffffffffffffffffffffffffffff1673ffffffffffffffffffffffffffffffffffffffff1681526020019081526020016000208190555062000495565b600081519050919050565b7f4e487b7100000000000000000000000000000000000000000000000000000000600052604160045260246000fd5b7f4e487b7100000000000000000000000000000000000000000000000000000000600052602260045260246000fd5b60006002820490506001821680620001b657607f821691505b602082108103620001cc57620001cb6200016e565b5b50919050565b60008190508160005260206000209050919050565b60006020601f8301049050919050565b600082821b905092915050565b600060088302620002367fffffffffffffffffffffffffffffffffffffffffffffffffffffffffffffffff82620001f7565b620002428683620001f7565b95508019841693508086168417925050509392505050565b6000819050919050565b6000819050919050565b60006200028f6200028962000283846200025a565b62000264565b6200025a565b9050919050565b6000819050919050565b620002ab836200026e565b620002c3620002ba8262000296565b84845462000204565b825550505050565b600090565b620002da620002cb565b620002e7818484620002a0565b505050565b5b818110156200030f5762000303600082620002d0565b600181019050620002ed565b5050565b601f8211156200035e576200032881620001d2565b6200033384620001e7565b8101602085101562000343578190505b6200035b6200035285620001e7565b830182620002ec565b50505b505050565b600082821c905092915050565b6000620003836000198460080262000363565b1980831691505092915050565b60006200039e838362000370565b9150826002028217905092915050565b620003b98262000134565b67ffffffffffffffff811115620003d557620003d46200013f565b5b620003e182546200019d565b620003ee82828562000313565b600060209050601f83116001811462000426576000841562000411578287015190505b6200041d858262000390565b8655506200048d565b601f1984166200043686620001d2565b60005b82811015620004605784890151825560018201915060208501945060208101905062000439565b868310156200048057848901516200047c601f89168262000370565b8355505b6001600288020188555050505b505050505050565b6106dc80620004a56000396000f3fe608060405234801561001057600080fd5b506004361061007d5760003560e01c80638da5cb5b1161005b5780638da5cb5b146101005780638e29616b1461011e578063beabacc81461014e578063c64908351461016a5761007d565b806327e235e31461008257806347734892146100b2578063893d20e8146100e2575b600080fd5b61009c60048036038101906100979190610488565b610188565b6040516100a991906104ce565b60405180910390f35b6100cc60048036038101906100c79190610488565b6101a0565b6040516100d991906104ce565b60405180910390f35b6100ea6101e9565b6040516100f791906104f8565b60405180910390f35b610108610213565b60405161011591906104f8565b60405180910390f35b61013860048036038101906101339190610488565b610239565b60405161014591906104f8565b60405180910390f35b6101686004803603810190610163919061053f565b610287565b005b61017261041f565b60405161017f91906104ce565b60405180910390f35b60046020528060005260406000206000915090505481565b6000600460008373ffffffffffffffffffffffffffffffffffffffff1673ffffffffffffffffffffffffffffffffffffffff168152602001908152602001600020549050919050565b6000600360009054906101000a900473ffffffffffffffffffffffffffffffffffffffff16905090565b600360009054906101000a900473ffffffffffffffffffffffffffffffffffffffff1681565b600080600460008473ffffffffffffffffffffffffffffffffffffffff1673ffffffffffffffffffffffffffffffffffffffff16815260200190815260200160002081905550819050919050565b600460003373ffffffffffffffffffffffffffffffffffffffff1673ffffffffffffffffffffffffffffffffffffffff16815260200190815260200160002054811015610309576040517f08c379a0000000000000000000000000000000000000000000000000000000008152600401610300906105ef565b60405180910390fd5b80600460008573ffffffffffffffffffffffffffffffffffffffff1673ffffffffffffffffffffffffffffffffffffffff1681526020019081526020016000206000828254610358919061063e565b9250508190555080600460008473ffffffffffffffffffffffffffffffffffffffff1673ffffffffffffffffffffffffffffffffffffffff16815260200190815260200160002060008282546103ae9190610672565b925050819055508173ffffffffffffffffffffffffffffffffffffffff168373ffffffffffffffffffffffffffffffffffffffff167fddf252ad1be2c89b69c2b068fc378daa952ba7f163c4a11628f55a4df523b3ef8360405161041291906104ce565b60405180910390a3505050565b60025481565b600080fd5b600073ffffffffffffffffffffffffffffffffffffffff82169050919050565b60006104558261042a565b9050919050565b6104658161044a565b811461047057600080fd5b50565b6000813590506104828161045c565b92915050565b60006020828403121561049e5761049d610425565b5b60006104ac84828501610473565b91505092915050565b6000819050919050565b6104c8816104b5565b82525050565b60006020820190506104e360008301846104bf565b92915050565b6104f28161044a565b82525050565b600060208201905061050d60008301846104e9565b92915050565b61051c816104b5565b811461052757600080fd5b50565b60008135905061053981610513565b92915050565b60008060006060848603121561055857610557610425565b5b600061056686828701610473565b935050602061057786828701610473565b92505060406105888682870161052a565b9150509250925092565b600082825260208201905092915050565b7f596f7520646f6e74206861766520656e6f75676820746f6b656e730000000000600082015250565b60006105d9601b83610592565b91506105e4826105a3565b602082019050919050565b60006020820190508181036000830152610608816105cc565b9050919050565b7f4e487b7100000000000000000000000000000000000000000000000000000000600052601160045260246000fd5b6000610649826104b5565b9150610654836104b5565b925082820390508181111561066c5761066b61060f565b5b92915050565b600061067d826104b5565b9150610688836104b5565b92508282019050808211156106a05761069f61060f565b5b9291505056fea26469706673582212209171d937e5b89a5ae584cf19a1f8399d5163b7567570091714599bab18e2e62f64736f6c63430008130033",
  "linkReferences": {},
  "deployedLinkReferences": {}
}